:020000040800F2
:100000001804002045010008110200080902000838
:100010000D0200088D0100088503000800000000A3
:1000200000000000000000000000000015020008B1
:10003000DD010008000000001302000801030008B1
:100040005F0100085F0100085F0100085F01000810
:100050005F0100085F0100085F0100085F01000800
:100060005F0100085F0100085F0100085F010008F0
:100070005F0100085F0100085F0100085F010008E0
:100080005F0100085F0100085F0100085F010008D0
:100090005F0100085F0100085F0100085F010008C0
:1000A0005F0100085F0100085F0100085F010008B0
:1000B0005F0100085F0100085F0100085F010008A0
:1000C0005F0100085F0100085F0100085F01000890
:1000D0005F0100085F0100085F0100085F01000880
:1000E0005F0100085F0100085F0100085F01000870
:1000F0005F0100085F0100085F0100085F01000860
:100100005F0100085F0100085F0100085F0100084F
:100110005F0100085F0100085F0100085F0100083F
:100120005F0100085F0100085F0100085F0100082F
:10013000DFF80CD000F018F800480047FD03000875
:10014000180400200648804706480047FEE7FEE7FF
:10015000FEE7FEE7FEE7FEE7FEE7FEE7FEE7FEE777
:100160002503000831010008064C074D06E0E06851
:1001700040F0010394E8070098471034AC42F6D3EE
:10018000FFF7DAFF180400083804000800BFFEE794
:1001900000200F494860084640680E4908430C4952
:1001A000486000200860084600680B490843084979
:1001B000086000BF06488078C0F340000028F9D0EE
:1001C00000BF0348C078C0F340000028F9D0704752
:1001D0000010024002041D00000050107047000093
:1001E0000748806940F008000549886100200549FA
:1001F00008600846006840F440100860704700003E
:1002000000100240000C014000BFFEE700BFFEE707
:1002100070477047704710B500F002F810BD00003D
:100220000CB50020019000903348006840F4803005
:100230003149086000BF3048006800F40030009089
:100240000198401C0190009818B90198B0F5A06F72
:10025000F1D12948006800F4003010B1012000906D
:1002600001E0002000900098012843D12348006855
:1002700040F01000214908600846006820F00300A3
:1002800008600846006840F0020008601A484068AC
:10029000194948600846406848600846406840F48C
:1002A000806048600846406820F47C10486008463A
:1002B000406840F4E81048600846006840F08070EC
:1002C000086000BF0C48006800F000700028F9D0FA
:1002D0000948406820F00300074948600846406824
:1002E00040F00200486000BF0348406800F00C0086
:1002F0000828F9D10CBD0000001002400020024087
:1003000010B500F041F80548008828B1044800689D
:1003100010B103480068804710BD000000000020B5
:100320001400002010B51348006840F00100114986
:10033000086008464068104908400E494860084671
:1003400000680E4908400B4908600846006820F420
:10035000802008600846406820F4FE0048604FF4A2
:100360001F008860FFF757FF4FF0006004490860E6
:1003700010BD0000001002400000FFF8FFFFF6FE75
:1003800008ED00E000BFFEE710480068401C0F4980
:100390000860084600680E49096888420FD20B4879
:1003A0000068401C0A490968884204D1094800686D
:1003B0004FF0E021486100200749088005E0012056
:1003C00005490880002001490860704708000020A6
:1003D000040000200C0000200000002002E008C8FB
:1003E000121F08C1002AFAD170477047002001E0AF
:1003F00001C1121F002AFBD170470000FFF7C8FEA1
:10040000FFF7EEFE05E00348006840F020000149D8
:100410000860F8E70C0C01403804000800000020D8
:1004200018000000DC030008500400081800002039
:1004300000040000EC0300080000000000000000C1
:100440000000000000000000480000000000000064
:0400000508000131BD
:00000001FF
